:020000041000EA
:1000000000B5324B212058609868022188439860DF
:10001000D860186158612E4B002199600221596106
:100020000121F02299502B49196001219960352056
:1000300000F044F80222904214D00621196600F024
:1000400034F8196E01211966002018661A6600F04E
:100050002CF8196E196E196E052000F02FF8012189
:100060000842F9D1002199601B49196000215960AB
:100070001A491B48016001219960EB211966A021F2
:10008000196600F012F800219960164914480160C1
:100090000121996001BC002800D000471248134993
:1000A000086003C880F30888084703B5996A0420EC
:1000B0000142FBD001200142F8D103BD02B5186610
:1000C0001866FFF7F2FF186E186E02BD00000240BE
:1000D000000000180000070000035F00212200005C
:1000E000F4000018222000A00001001008ED00E03C
:1000F00000000000000000000000000074B24E7A12
:1001000000200420F7010010C3010010C5010010F9
:10011000C1010010C1010010C1010010C101001097
:10012000C1010010C1010010C1010010C701001081
:10013000C1010010C1010010C9010010CB01001065
:10014000CD010010CD010010CD010010CD01001037
:10015000CD010010CD010010CD010010CD01001027
:10016000CD010010CD010010CD010010CD01001017
:10017000CD010010CD010010CD010010CD01001007
:10018000CD010010CD010010CD010010CD010010F7
:10019000CD010010CD010010CD010010CD010010E7
:1001A000CD010010CD010010CD010010CD010010D7
:1001B000CD010010CD010010CD010010CD010010C7
:1001C00000BE00BE00BE00BE00BE00BEEFF3058054
:1001D000103800BEF2EB887110FF041030FF0410DD
:1001E0003402001090A31AE700201F49086006C8D7
:1001F00081F3088810471D48006800282FD10DA4FE
:100200000ECC002902D000F012F8F9E71849194A7B
:10021000002000E001C19142FCD1174988471749ED
:1002200088471749884700BEFDE701C901C29A42C5
:10023000FBD3704730FF0410C00000207012002074
:10024000001105100000042000000420001105101A
:10025000001004200010042000000000704709482E
:1002600000F08EFE0047000008ED00E0000000D026
:1002700090120020DCD90020991F011055030010B6
:100280008D2001105756000006005250ABB360534A
:10029000C8FC041006005250861C0302D8FC04104F
:1002A000060052505422A29DECFC0410050052504E
:1002B000DE65F46800110510F8B5C0460448054B2A
:1002C00010B5834203D0044B002B00D0984710BDDB
:1002D000701200207012002000000000064807493C
:1002E000091A8B10C90FC91810B5491003D0044B57
:1002F000002B00D0984710BD701200207012002013
:100300000000000010B5074C2378002B09D1FFF73F
:10031000D5FF054B002B02D0044800E000BF0123AD
:10032000237010BDE813002000000000E8660110F3
:10033000054B10B5002B03D00449054800E000BF71
:10034000FFF7CCFF10BDC04600000000EC130020FA
:10035000E866011010B514F019F8FA20000101F058
:1003600095FE13480DF026F800281DD1114813F012
:100370005FFF0CF0C3FF104B104A114911480CF0FD
:10038000CBFF041E0BD1104B186804300CF03CFE60
:10039000002201000D4813F0EDFF200010BD0C48B5
:1003A00013F046FF0124F8E70A4813F041FFDDE7A8
:1003B00053450000FC6601101027000004004000B7
:1003C0000011002010110020C4CC00201C67011077
:1003D00008670110E866011010B507F06DFE10BD4A
:1003E0000123F0B50B7283B0040007F099FE0500FD
:1003F000431C0DD11249134B1A685B68009201939C
:100400008A60CB60236820005B69984703B0F0BD29
:1004100001F0F0FEFA2206000F0000232800002160
:10042000920013F051FD36184F41002F03DB0449B1
:100430008E60CF60E6E70126034F7642F7E7C046BD
:100440002811002070670110FFFFFF7F70B5094D74
:1004500004002B78002B08D00123074920000B72E1
:100460002368DB699847012070BD02F06BFA012315
:100470002B70F1E7222400201C11002010B504008D
:10048000036804499B699847236820001B6A024956
:10049000984710BD281100201C1100200020704733
:1004A0007047C04610B501F0A5FE002905D0FA221C
:1004B0000023920013F0BAF910BDFA21890013F05D
:1004C00077F9F9E7020083680832002B04D107E0CE
:1004D0001A001B68002B03D09942F9D1002003E0D9
:1004E0000023012011600B607047C0468368002B19
:1004F00008D0994202D107E0994207D01A001B6840
:10050000002BF9D100207047020008320B6801204F
:100510001360F8E74368021D002B04D107E01A00BE
:100520001B68002B03D09942F9D1002003E000237F
:10053000012011600B6070474368002B08D099427E
:1005400002D107E0994206D01A001B68002BF9D1AE
:1005500000207047021D0B6801201360F9E7C046B8
:10056000F8B54746CE468368804680B5002B27D035
:1005700008234344994601F03DFE0B00414689683B
:100580000200002956D0CC4600208C68CD681600A9
:100590001F00361BAF41002F02DB22002B006046FC
:1005A0008C4609680029F0D1002843D001680B6807
:1005B00003604B684046984743469B68002BDAD15E
:1005C00043465C68002C31D00025237A002B29D0CB
:1005D000210063682572404698472468002CF4D1B6
:1005E000174B1868596843469E68002E04D112E0E4
:1005F00020002900002E0ED0330002009C68DD6828
:100600000B00121BAB413668002BF1DCF2D1002A43
:10061000EED1002EF0D14346186159610CBC9046D2
:100620009946F8BD2468002CCFD1D9E7044B18684F
:100630005968F0E743465C68002CC5D1D0E7C04656
:1006400070670110024B18688007C00F7047C046E2
:1006500000C006400F4A104B10B512184B419900CC
:10066000900F0843990F504059400C4A0C4B13F01F
:100670002BFC4A01C30E1343CA0E58405140094B8C
:10068000094A13F021FC4A00C30F1343CA0F584014
:10069000514010BD157C4A7FB979379EB9E5E41CFD
:1006A0006D4758BFBB49D094EB113113F0B50468C6
:1006B00045684F464646D64623002A008146C0B5C7
:1006C00008680E00496803430A43134304D101F04C
:1006D00091FD03000B43FAD02A06230A6040270647
:1006E00013432A0A69403A43070CB8460F04BC4634
:1006F0004B409A464746634642401F4303045A40D4
:100700004B461A6052467A4013004A465360C20E66
:100710004B014001C90E1343014333607160AB00CC
:10072000A10F0B43A200A4185D41EB01620E1A4316
:10073000E4016B0E23431E0017005B0FD100F00095
:100740001943801979411CBC90469946A246F0BDD8
:10075000F0B5DE4657464E464546E0B5AF4B8DB048
:100760001B78002B00D1DDE0AD4BAE4D9846AE4B73
:10077000AE4F02930AAB08AC05931022390020005B
:1007800013F0FEFBAA4B1B78DBB2049301F032FDA1
:10079000FFF760FF089B5840636808905940A54BDD
:1007A00061609B69DB0431D5A34BDA6BE023134016
:1007B000402B2BD0EFF305830093A04BA2469B4622
:1007C0002C686E68009B20003100002B1BD001F0CC
:1007D0001BFDEFF3108972B65B461B68002BFBD044
:1007E000BFF35F8F2B68A34213D0BFF35F8F00224C
:1007F0005B461A6089F310882C686E68009B2000A5
:100800003100002BE3D101F0DFFBE2E711F05AFCED
:10081000D0E76B68B342E8D10126864B5446D869CD
:10082000064001F0E7FC0A22002380185941002904
:1008300000DA71E043461A685B6892185B412860F1
:100840006960110030001A0043460843009101928C
:1008500018605A60BFF35F8F0025784A156089F3EE
:1008600010880199FFF7F6FE754AA3689446584030
:10087000E368A0605940029B724A1B78E160DB008C
:100880006344986890424BD00021FFF7E3FE089B39
:1008900018406368089019406160EFF3108572B6E4
:1008A000664A1368002BFCD0BFF35F8F604B049A3D
:1008B0001B7893420FD0089B3A68534008937A689C
:1008C000636853406360BA68A3685340A360FA68E2
:1008D000E3685340E36020000599FFF7E7FE10222C
:1008E00080460E003800210013F04AFB504B504A5E
:1008F0001B780133DBB21370BFF35F8F00224F4BC5
:100900001A6085F31088404631000DB03CBC90461B
:100910009946A246AB46F0BD01204B49404289E7CB
:100920009D60B1E7494B984618685968484B9C460A
:10093000484B9946830E8F011F438601030C0D041B
:100940001D4332003B00040412196B41121A8B4103
:10095000614601C98C4600210090019100980199DF
:1009600080185941CC45E5D1434618605960FFF7DE
:1009700071FE089B08AC584063680890594006A86F
:10098000616000F029F906980799FFF763FEA368F4
:100990005840E368A0605940264BE1609B69DB0446
:1009A00038D5254BDA6BE0231340402B32D0EFF3E0
:1009B0000583984640230093204B002600279A4643
:1009C000A146184D4346029603976C682F68210094
:1009D0003800002B1BD001F017FCEFF3108B72B620
:1009E00053461B68002BFBD0BFF35F8F2B68BB42C5
:1009F00032D0BFF35F8F002253461A608BF310880A
:100A000043462F686C6838002100002BE3D101F0C9
:100A1000DBFAE2E711F056FBC9E7C0462B240020C1
:100A200088120020E01300201D24002078120020EE
:100A30001E2400200000064000800040300100D04D
:100A400000000340FFFFFF00FFFFFF7F7012002048
:100A5000001C0420002004206B68A342C9D1029E20
:100A6000039F300039004D4B80197941DA69012329
:100A7000134003431E000F00002401F0BBFB0A23B8
:100A8000C0186141002940DB009B28606960012B90
:100A900043D1434B4C4698461E605F60BFF35F8F67
:100AA000404B994600234A4613608BF31088300070
:100AB0003900FFF7CFFD089B584063680890594004
:100AC000616001F097FBFFF7C5FDA3685840E3683C
:100AD000A0605940E160EFF3108A72B64B461A6885
:100AE000002AFCD0BFF35F8F2F4B1B78002B1FD049
:100AF0002E4B2F4F02930AAB0593BFF35F8F00225B
:100B0000284B1A608AF3108837E601202949009B98
:100B1000404228606960012BBBD0BFF35F8F002388
:100B2000524613608BF31088009B013B009349E70A
:100B3000214BDA681F2A2AD05A691F2A24D0DA6981
:100B40001F2A1FD05B6A1F2B24D011F0BBFAFF268F
:100B5000FF23164AF6001370184B02929C46052399
:100B6000664473600AAB190020000593FFF79EFDF1
:100B70000F4F10222100380013F002FA01230A4A15
:100B80001370BAE702230093009EF3B2E1E700235B
:100B90000093F9E71C3B0093F6E7C04600000640CF
:100BA00088120020300100D02B2400201D240020BA
:100BB00078120020FFFFFF7F000003400800034081
:100BC00010B5FFF7C5FD10BD10B5024800F0EAF8FA
:100BD00010BDC046A823002010B50822014913F01B
:100BE000CFF910BDA823002030B54B1E012900D13C
:100BF000B0E06B4A11780D112C0030349F2900D9D8
:100C0000ABE00470012B00D1C7E00F211478214024
:100C10000C003034092900DDA1E04470022B00D122
:100C2000BBE051780D112C0030349F2900D999E098
:100C30008470032B00D1B0E00F21547821400C00C8
:100C40003034092900DD8FE0C470042B00D1A4E00A
:100C500091780D112C0030349F2900D987E0047160
:100C6000052B00D199E00F21947821400C003034FD
:100C7000092900DD7DE04471062B00D18DE0D1789B
:100C80000D112C0030349F2900D975E08471072B99
:100C900000D182E00F21D47821400C0030340929A2
:100CA00000DD6BE0C471082B00D176E011790D11E5
:100CB0002C0030349F2964D80472092B00D16CE0D9
:100CC0000F21147921400C00303409295BDC447277
:100CD0000A2B62D051790D112C0030349F2955D840
:100CE00084720B2B59D00F21547921400C003034E1
:100CF00009294DDCC4720C2B4FD091790D112C00B9
:100D000030349F2900D9073404730D2B45D00F21AF
:100D1000947921400C003034092901DD37310C0071
:100D200044730E2B39D0D1790D112C0030349F290A
:100D300000D9073484730F2B2FD0D1790F220A40AA
:100D400011003731092A01DC30321100C173102B38
:100D500023D010300023037030BD073451E7373102
:100D60000C005AE7073463E737310C006CE70734AF
:100D700075E737310C007EE7073487E737310C0021
:100D800090E7073498E737310C00A0E70734A7E76E
:100D900037310C00C4720C2BAFD1C018DAE7C04653
:100DA000A823002030B5002589B0040009220021C5
:100DB00001A8009513F0DEF80922002105A804958A
:100DC00013F0D8F84B236A466846137004A90D2225
:100DD00015F0F2FB152108222000694413F0D0F829
:100DE00009B030BDEFF3108072B6034A1368002BD0
:100DF000FCD0BFF35F8F70472C0100D0BFF35F8F33
:100E00000022024B1A6080F3108870472C0100D03A
:100E1000F8B5EFF3108772B60E4E3368002BFCD096
:100E2000BFF35F8FCB08C4180725A446C45C012319
:100E30000D40AB4018002040234208D162462343B6
:100E40001370BFF35F8F306087F31088F8BD100018
:100E500011F020F92C0100D0F8B5CE4647468C465B
:100E600080B5EFF3108872B6214D2C68002CFCD0B1
:100E7000BFF35F8F9A422CD8D4080721055D06196D
:100E8000012411408C402C421FD00721894606398D
:100E900009E0D408055D06194C460F001440A74030
:100EA0003C002F4211D001329342F2D20120404245
:100EB000BFF35F8F00220E4B1A6088F31088002862
:100EC0000FDB0CBC90469946F8BD2C4310003470E3
:100ED000EEE7BFF35F8F00232B6088F310880120BB
:100EE00040426346002BECD0089811F0D3F8C0467E
:100EF0002C0100D070B5EFF3108672B60A4C23684F
:100F0000002BFCD0BFF35F8F07230122CD081940CF
:100F10008A40435D93434355BFF35F8F00232360B3
:100F200086F3108870BDC0462C0100D00021044B10
:100F3000044ABFF35F8F02C39342FAD17047C046A1
:100F4000000100D0800100D0044A1078431CDBB2BD
:100F5000172B00D9102313707047C0464011002092
:100F600000B5054B83B00100009318221F230348EE
:100F7000FFF772FF03B000BD38670110C4190020ED
:100F8000142310B50100188804331B88984710BD3E
:100F9000162310B50100188802331B88984710BD2E
:100FA000F0B5C64600B5002916D01423040001256B
:100FB00098461827890046184346216818883B88B8
:100FC000984701C4431E984140420540A642F3D1D0
:100FD000280004BC9046F0BD0125F9E730B50C208F
:100FE00083B001F047FCFFF72DFB00280ED0944B97
:100FF000944A1A605A609A60DA601A615A619A617A
:10100000DA611A62904A5A6203B030BD8F4CA06711
:1010100001F084FC01228E4B1A60636C012BFCD121
:1010200003228C4B1A60894A936B012BFCD101334C
:101030000121894A89480093043301F0C7FB052345
:10104000874A00930121874801F0C0FB864B5A680C
:10105000FF2A02D8802252005A608022784C7D4BB1
:1010600021691201804D1A60002905D0606912F0D3
:101070009FFB01300138FDD1E0217B4B02201A6833
:101080001140802252012A4311601968484003210F
:101090000140116004219A681142FCD08022802115
:1010A00092012A4309011160802252005A606F4B5D
:1010B00023616F4B5968FF2900D85A6003226C489E
:1010C000634B01211A60020093681942FCD0E025AD
:1010D00013681D4080235B0103431D6012684A4072
:1010E0000321114019600221614A93681942FCD022
:1010F000802380219B0103430901196080215D4BFE
:101100004900516063615C4B5A68FF2A00D85960FE
:1011100080225A4BE1691201574D1A60002905D00F
:10112000606912F045FB01300138FDD1E0225249DF
:101130000B681A4080235B012B431A6080238022B6
:101140009B012B4312011A6080223E4B52004A60E1
:10115000E3614B4B5968FF2900D85A608022494B04
:10116000216A1201464D1A60002905D0606912F00B
:101170001FFB01300138FDD1E02241490B681A40C4
:1011800080235B012B431A60802380229B012B4329
:1011900012011A60802380225B004B60294BD2022F
:1011A0002362394B5968914200D25A608022374BF2
:1011B000616A1201344D1A60002905D0606912F08D
:1011C000F7FA01300138FDD1E0222F490B681A40AF
:1011D00080235B012B431A60802380229B012B43D9
:1011E00012011A608023DB024B60174B6362284BAD
:1011F0005A68FF2A02D8802252005A608022254B6A
:10120000A1691201224D1A60002905D0606912F00F
:10121000CFFA01300138FDD1E0221D490B681A4098
:1012200080235B012B431A60802380229B012B4388
:1012300012011A6080235B004B600E4BA361E3E652
:10124000C8190020006CDC021BB7000000800040C1
:101250003CB0004030B00040002F68590080024090
:10126000008C864700C0024030800040001BB70061
:101270003C800040405973075480004054B0004007
:101280006080004060B000406C8000406CB0004066
:101290004880004048B00040014B8000C058704773
:1012A000C8190020094A830094464022634410B5BF
:1012B0001C68C0006240C0241440802252011343C5
:1012C0001C60034B9C466044416010BD04C001405B
:1012D000004001400A4B80009C46042360440029E2
:1012E00001D00C230821002A00D10B0002685340D2
:1012F0000C221A4080235B01184302607047C046ED
:1013000004C00140084B80009C466044002905D081
:1013100080239B011843022303607047C0239B0175
:10132000184302230360F8E704C00140D0231B06E2
:101330001B6830B55C1EA34105000F485C42844623
:1013400007203023284023408000EC088140200003
:101350000A4D3C3063448000A40041511B19002A0F
:1013600004D0802292011343196030BDC022920143
:1013700013431960F9E7C0460041014000400140B5
:10138000D023F0B5C64604001B0698461B680C4FD8
:101390009B00F8580D00160000B5044209D1320038
:1013A000290004430D20FC5000F09CF804BC90463A
:1013B000F0BD10F087FE43461B689B00F858EEE72F
:1013C0009423002010B504000D2000F06BF9D02309
:1013D0001B061B6802499B005A58A2435A5010BD75
:1013E000942300200123D02283401206936293614C
:1013F000094A83009446402263441968C0004A4069
:10140000C02111408022520113431960034B9C46B6
:10141000052360444360704704C001400040014020
:1014200001238340002904D0034A1360034A136058
:101430007047034A1360FBE780E200E000E100E050
:1014400080E100E001238340014A13607047C046F9
:1014500000E200E0084B10309B688000C358002B6E
:1014600007D0064A00209B1A2F229A424041C0B260
:1014700070470020FCE7C04600ED00E0441100206A
:10148000024B10309B688000C058704700ED00E0B0
:1014900070B50D00EFF3108672B60F4A1368002B7B
:1014A000FCD0BFF35F8F0D4B10309B6884001B593D
:1014B0000B4A934203D09D4201D010F003FE074B2C
:1014C0009B681D51BFF35F8FBFF35F8F0022024BFC
:1014D0001A6086F3108870BD240100D000ED00E092
:1014E000CD010010F0B557464E464546DE46E0B504
:1014F000894683B005001700EFF3108A72B65D4A83
:101500001368002BFCD0BFF35F8F00205A4B185696
:101510009B4600286CDB5A464400584E2418A40011
:10152000331998469B7910351370554BAA009B6868
:1015300001929B589C469B1B2F2B28D80122614669
:101540009143CB79BB4208D86AE053009B189B00BB
:10155000F318DD79BD4251D9190006228A56002AB6
:10156000F3DA0B1D9B46474E43465C46043B1B1B70
:101570001B05454C5B0D23438B80887141468A7166
:101580004A46424B8E800B60CF718A601BE0404B15
:101590009C4542D142463F4B023413803E4B3619A4
:1015A000043B9E1B3605384B760D1E433B4B568045
:1015B0009380FF23D771937143464A469A60012373
:1015C00042461A43944661462D4B019A9B689950B6
:1015D000BFF35F8FBFF35F8F0022264B1A608AF341
:1015E000108803B03CBC90469946A246AB46F0BD7D
:1015F00010F068FD5B46002018568CE70B1D9B46DB
:101600008B8804345B051B155B4436199E1BE02355
:101610003605760D1B021E43A6E710F053FDB9E711
:1016200045460B001E489B1B5B415843000D194B60
:101630002B80A31C9C46B4446546174B0434043BE2
:101640005B1B1B05104D5B0DAC462B434546361905
:101650006B800B1F9E1B6346A87148463605760DAE
:101660001E430A4BAE80EF71A8600B6043461343E4
:101670009C46A8E7240100D0252400204411002026
:1016800000ED00E001BD000000E0FFFF01488047E1
:10169000CD01001000A1FFFF7411002001BDFFFF6C
:1016A000AAAA0000F0B5DE4657464E464546E0B5CC
:1016B0000C0083B0EFF3108972B6594A1368002BFF
:1016C000FCD0BFF35F8F574B9A68030010339F0025
:1016D000D559554A9046954232D0A54243D0534EF3
:1016E000AA1B2F2A2CD80122824092465146504AEA
:1016F00012681140019151464E4A1160BFF35F8F4D
:10170000EFF305829346002A33D101232A009A433E
:1017100093689C4208D178E04B005B189B00F3185B
:101720009968A1422AD01A00062151560029F3DAFD
:10173000019B002B19D052463F4B1A603C4B1A605C
:10174000384B9B68DD51BFF35F8FBFF35F8F002283
:10175000334B1A6089F3108803B03CBC904699461D
:10176000A246AB46F0BD1500EAE75246314B1A607F
:10177000E6E79342C9D010F0A5FCC6E7062159560A
:10178000002922DB4A005018800034188046A068E7
:101790009860E079D871062020569871A0797F284A
:1017A00024D8A488F01A6405241544440019E024C0
:1017B0000005400D24022043988052181F4B9200D0
:1017C000B6181A781970B271B2E7594600290FD1CC
:1017D000FF3191711A49918018490A789A71194A12
:1017E0009B1B5B415A43120D0A70A1E71648E3E7C1
:1017F000164A1749D21A083A5002400D01439980FF
:10180000144952080A43DA8092E706215156130020
:101810000029B7DA5A46002AEAD14546DCE7C04635
:10182000240100D000ED00E0CD01001044110020A3
:1018300000E100E080E100E080E200E025240020FB
:1018400001BDFFFFAAAA000001BD00007E1100201B
:1018500000F0FFFF00F8FFFF032310B50400074A64
:1018600018409446C0009C43FC3383406444226883
:1018700081409A4313000B43236010BD00E400E055
:10188000F0B5EFF3058101240443EFF3108672B63F
:10189000214A1368002BFCD0BFF35F8F1F4B05005C
:1018A0001F4AED1A6D416A43120D1E4D8900AF6843
:1018B00052B27F58A7421CD00621595691421CD0E3
:1018C00012215956914222D01E215956914220D0C0
:1018D0002A2159560324914210D0134B19781A70BB
:1018E0008171BFF35F8F00220B4B1A6086F3108863
:1018F000F0BDAB680D4C5C50EFE7002461000919A6
:1019000089005B18FF21997109499980E5E7012455
:10191000F4E70224F2E7C046240100D0441100207D
:10192000AAAA000000ED00E025240020CD0100104F
:1019300001BDFFFF054B064A1360064A1360536062
:101940009360D3601361536193617047808080809E
:1019500000E400E004E400E01F2110B5091A024889
:10196000FFF7C8FA10BDC0462F24002000B5074B72
:1019700083B001000093002205230548FFF76CFAAD
:10198000002801DB1F23181A03B000BD54670110A3
:101990002F24002070B504000E001500FFF7D4FAC4
:1019A0000100200000F006F8A680E580BFF35F8FFD
:1019B00070BDC046024B9C4661448900016070477F
:1019C0004000003410B50400FFF7BEFA010020000B
:1019D000FFF7F0FFFF232371BFF35F8F10BDC046F9
:1019E00010B50400FFF7B0FA01002000FFF7E2FF96
:1019F000FF23A380BFF35F8F10BDC04610B5040066
:101A00000120FFF7ADFA034BC3189B002360BFF31F
:101A10005F8F10BD40000034034B9C466144890039
:101A20000160BFF35F8F70474000003483680B484C
:101A300010B5844661446244090112019A1859188C
:101A400054684B6801209C4201D802D00020C0B2EB
:101A500010BD12680B689A42F9D8F7E7FFFFFF0F35
:101A60000A4B1968EFF3108072B60A68002AFCD09E
:101A7000BFF35F8F1B68BFF35F8F00221A6080F394
:101A8000108840BF002000217047C046B8230020C6
:101A9000F8B5574645464E46DE46E0B599460CAB8E
:101AA00019780DAB1B78050090469A460768002907
:101AB00012D1BE7B002E45D074003B68A419033CB4
:101AC0001B195A783100BA73002A00D1FA73002228
:101AD0009A705A701A7003E00E004C006418033CB0
:101AE0002C4B00229C46AB6861449C46434609014E
:101AF00061440B604B464B600A9B8B600B9BCB6039
:101B00003B681B199A705A701A707B7B9B46002B9E
:101B10002CD032005946B8687B6898473A6800284C
:101B200017D05B4658465B005B441419033BA0701A
:101B3000D118D35C002B00D063705B460E707B73B2
:101B4000B34514D030003CBC90469946A246AB4603
:101B5000F8BD5B465B005B44033BD3189E701119D4
:101B6000125D002A00D05A705B460B707E734246AD
:101B70004B46287D00F09EFB041E06D05346002BEA
:101B800003D13100286800F0E3FD0E9B002BD9D073
:101B90001C70D7E7FFFFFF0FF0B5DE4657464E46F5
:101BA00045460023E0B58BB00893664B8200D458BD
:101BB00000239B46099000F01DFB626806000F00A1
:101BC000EFF3108572B61368002BFCD0BFF35F8F64
:101BD00023689C465B7B9946002B68D0A2685A4BD1
:101BE00090464B441B01984443461A685B681000BA
:101BF0001900801BB941002963DD099800F05AFBE8
:101C000000230022984600230692079300239A4659
:101C10006368BFF35F8F5A461A6085F31088534696
:101C2000002B08D10028C6D10BB03CBC9046994689
:101C3000A246AB46F0BD089B414618024B461843EE
:101C4000D047626806000F00EFF3108572B6136884
:101C5000002BFCD0BFF35F8F002F4FDB33003B43E3
:101C600002D02369002B60D12368DA7B002A07D0D9
:101C700051008A1819688C4649466244033A5170EB
:101C80009A7B002A01D14A469A734A46DA734B4638
:101C9000E168013BCA5C0132CA545B462361636858
:101CA000BFF35F8F5A461A6085F3108883E70023DD
:101CB00000229846002306920793002300209A46AC
:101CC000A6E7002901D1002897D10021604600F045
:101CD0009DFC43461A685B680692079343469B68DF
:101CE0009A464346DB689846E3684B44013B1B78C1
:101CF00008931B0203432361002089E72369002B1B
:101D0000B2D0069A079B921BBB41002B15DB5946AC
:101D100004910121039149460291414601915146A6
:101D200020000091FFF7B4FEB7E700F063FA32003D
:101D30003B0012184B41002BE9DA0122034B5242BF
:101D4000E5E7C0467C230020FFFFFF0FFFFFFF7F7A
:101D500010B5144C6368002B04D00A211248FFF719
:101D600029FE10BD2300114A1021206800F068FBF5
:101D7000032000F033FA032000F00EFB03200C498F
:101D800000F052FAFFF7E0F80A4B9C460323237554
:101D9000D0231B061B6860446375074B800060609E
:101DA000DC60DAE78C110020B82300202D1A001027
:101DB000991B0010400000347C230020004870472D
:101DC0008C110020F0B557464546DE464E46E0B53C
:101DD00085B0019310AB1B78002703930023804646
:101DE0009A46009243465A68EFF3108972B6136818
:101DF000002BFCD0BFF35F8F43461D68AC7B002CEB
:101E00004FD066002B683619033E9B195A78AA7387
:101E1000002A00D1EA7342469F705F701F7092687B
:101E20004A4B94460099019AE3181B0163441960D8
:101E30005A600E9A9A600F9ADA602B689B199F700D
:101E40005F701F706B7B9B46002B46D022001900F1
:101E5000A8686B6898472A68002831D05B465846C6
:101E60005B005B449619033BB070D118D35C002B28
:101E700000D073705B460C706B735C452ED043468C
:101E8000DB681B19013B187843465B68BFF35F8F23
:101E90001F6089F310885346002B2ED10002204387
:101EA00007E05B68BFF35F8F1C6089F31088012037
:101EB000404205B03CBC90469946A246AB46F0BDB8
:101EC0005B465B005B44033BD3189C709119925DA9
:101ED000002A00D05A705B460B706C734346187D25
:101EE000009A019B00F0E6F982460028C7D04346DD
:101EF0002100186800F02CFCC1E7039B002B23D0C5
:101F00000E9B00200F999847030004000D000B431F
:101F10001AD000290ADA009A019B121BAB410092E9
:101F20000193002B0ADB039B9A465BE700F062F902
:101F300024184D4100940195002DF4DA0123044C3E
:101F40005B4200930194EEE70020B2E7FFFFFF0F32
:101F5000FFFFFF7F70B542680400EFF3108572B693
:101F60001368002BFCD0BFF35F8F2068CAB2437B9D
:101F700093420AD0FF230B405E00F3180668B44674
:101F80006344033B9B78002B13D0E668FF23B446E1
:101F90000B406344013B090A1E78C9B28E420DD042
:101FA00000206368BFF35F8F00221A6085F31088FA
:101FB00070BD22698A42F3D12361F1E7110000F07C
:101FC000C7FBEEE7407D7047F0B504000D00062624
:101FD0007642F717C64636196F4100B584B08F4276
:101FE00014D811D000F006F932003B00121A8B41D0
:101FF000002B15DC002B3ED02000290000F004F956
:1020000004B004BC9046F0BD8642EBD90026002700
:1020100000F0F0F832003B00121A8B41002BE9DD92
:10202000002302930193154B3200009314483B00A8
:10203000FFF7C8FE0028DFDB00239846BC46114AA4
:10204000114F7B6A9C4504D8B96A8E42D4D99C450D
:10205000D2D11168EFF3108072B60B68002BFCD060
:10206000BFF35F8F1368BFF35F8F4146196080F342
:10207000108820BFE5E7002ABED0D1E7611A001022
:102080008C110020B82300200040054070B50600E8
:1020900000F0B0F8FA2204000D0000233000002107
:1020A000920011F011FF00196941002902DBFFF7CE
:1020B0008BFF70BD012001494042F8E7FFFFFF7F21
:1020C00070B5EFF3058305000C0084B0002B0FD032
:1020D000104B0020596A8C4203D89B6A0130AB42F6
:1020E00001D304B070BD641A611E8C41E0B2F8E700
:1020F000094E02930193094B0200009330000B003C
:10210000FFF760FE011EE3DD20BF3000FFF722FF76
:10211000DEE7C046004005408C110020611A001027
:10212000F0B5EFF30582D6464F4646461000C0B5DF
:102130001038EFF3108872B6214C2368002BFCD0C6
:10214000BFF35F8F0123190081401E4D1F0069639B
:10215000AA461D4D29601D4D2E78AC463500C54060
:102160002F402B4215D05346194D5F6A83005D59AD
:10217000AF4218D3174A8E439B5862461670BFF37E
:102180005F8F0022226088F31088002B06D09847CA
:1021900004E0BFF35F8F276088F310881CBC904673
:1021A0009946A246F0BD0C4B92009C4662441368CF
:1021B0001360BFF35F8F0023236088F31088EDE77F
:1021C000280100D0004005403C7005402E2400202E
:1021D000D423002094170020D03F054010B5010003
:1021E000024A0348FEF714FE10BDC046786701108E
:1021F0001F240020034B596A0A00986A596A8A42D0
:10220000FAD1704700400540064A536A9942FCD80B
:1022100007D1044B02E05A6A914202D19A6A824283
:10222000F9D370470040054070B504000D00EFF38E
:10223000108672B61A4A1368002BFCD0BFF35F8F6A
:10224000002D1BD02000FFF71BF9164981420AD050
:102250002000FFF71DF901212000FFF7E1F801231D
:10226000A340114A1360114BA400E550BFF35F8FE8
:1022700000220B4B1A6086F3108870BD0B4BA20036
:10228000D5500122A2400A4920000B7893430B70DD
:102290000449FFF707FA00212000FFF7C1F8E5E73E
:1022A000280100D02121001038600540941700203B
:1022B0002E240020F0B54F46D6464646C0B507004E
:1022C000304C616A0D00A66A616AA942FAD18B425C
:1022D00008D805D001201CBC90469946A246F0BD06
:1022E000B242F7D9EFF3108972B627480168002986
:1022F000FCD0BFF35F8F01252449BD408C4609788F
:10230000204C0E002E438846F1B28A466146504664
:102310000870391D1E48890065630A51B9000B50C9
:10232000216A0020294219D0616A0800A66A616A00
:102330008142FAD18B4219D801D1B24216D8C24596
:102340001DD0104B1F201D625D6301230740BB4061
:10235000104A1E381360634642461A70BFF35F8FFF
:102360000022094B1A6089F31088B4E70020BFF3FC
:102370005F8F0022044B1A6089F31088ABE70120BD
:10238000ECE7C04600400540280100D02E24002084
:10239000D423002080E200E010B5EFF3108472B681
:1023A0000A490B68002BFCD0BFF35F8F01238340E9
:1023B000074A0848136202789A430270BFF35F8F9E
:1023C00000230B6084F3108810BDC046280100D0A4
:1023D000004005402E24002070B505000E001400BA
:1023E000002924D0002A24D080686B689847296887
:1023F00000280ED063001B197200033B9219CB1802
:10240000033A9E7088188A5C002A14D10470300048
:102410000EE073009B196200033B1219CB18033ABC
:102420009C7088188A5C002A00D05A7006702000C0
:1024300070BD0800FCE75A7004703000F8E7C04631
:1024400030B583600023CCB2437301330473426020
:102450008373C4730D000068012C06D9421C01333C
:10246000DBB2137003329C42F9D1FF2129404B00AB
:102470005918002340180338437030BDF8B5CE46D4
:10248000474606000C0080B5002907D04D000368C0
:102490006D18033D5A195778002F04D120000CBC49
:1024A00090469946F8BD7900C919033988464344D6
:1024B0005978894600215970517073683A0021009B
:1024C000806898473368002814D042469A18947060
:1024D00059195B5D002B00D053700F7027004946DF
:1024E0003000FFF7CBFF390002003000FFF774FF28
:1024F0000400D3E7424641465D19AF709A185B5C11
:10250000002B00D06B701470E9E7C046F0B5574659
:102510004546DE464E46E0B50D006B0001685B198E
:10252000DF1E0400C85D83B00192CA19002850D094
:1025300043001B18033BCB185E78B446002E1AD11B
:10254000019E002E42D0E67B002E04D073009B1922
:10255000CB18033B5D70A37B002B00D1A573E57303
:1025600000282FD10023537003B03CBC90469946FD
:10257000A246AB46F0BD72006244033A89184A781D
:10258000904600224A7091465A70010032002000A5
:10259000FFF722FF43468246002B07D05B002168ED
:1025A0004344033BCB185A78002A16D14246514681
:1025B0002000FFF711FF2168019BCA19002BC2D12F
:1025C0000028CFD043001B18033BCB180021997083
:1025D000C8E7019B002BB6D1C4E750008018033830
:1025E000091848788346484648705870414620008C
:1025F000FFF7F2FE594680462000FFF73FFF4146B5
:1026000002002000FFF7E8FE8046CFE7F0B54E4617
:102610004546DE465746E0B5467B04007500006837
:10262000AD19033D83B00191415D4219002952D09B
:102630004B005B18033BC3185F78BC46002F1CD1CE
:10264000019D002D44D0E57B002D04D06B005B196B
:10265000C318033B5E70A37B002B00D1A673E67307
:10266000002931D1002330005370617303B03CBCAA
:1026700090469946A246AB46F0BD7A006244033AC2
:102680008018427893460022427091465A7020008A
:102690003A00FFF7A1FE5B468046002B07D05B00A7
:1026A00021685B44033BCB185A78002A17D15A465D
:1026B00041462000FFF790FE019B0100206842196F
:1026C000002BC0D10029CDD04B005B18033BC318B1
:1026D00000209870C6E7019B002BB4D1C2E75000E0
:1026E0008018033809184878824648464870587060
:1026F00059462000FFF770FE53468346002B07D053
:102700005B0021685344033BCB185A78002A06D15A
:10271000594652462000FFF75FFE8346C7E7500048
:1027200080180338091848464F7848705870514649
:102730002000FFF751FE390081462000FFF79EFE82
:10274000494602002000FFF747FE8246E0E7C04608
:1027500070B5040000292CD0437B8B422ED0056835
:1027600048004018033828188278002A21D05300E6
:102770009B18033BEA5CEE188A4202D11BE0002A58
:1027800008D053009B18033BEB185A788A42F6D1C5
:1027900042785A7000230122837043702000FFF7B3
:1027A000B5FE617B02002000FFF716FE607301207A
:1027B00000E0002070BD43783370EBE70122190080
:1027C000FFF7A4FE60730120F4E7C046F8B50400EB
:1027D0000C2017001D000E0010F0EAFF4101091A3D
:1027E0008B01591AC90009188901380010F0E0FF5F
:1027F000069A2B04120313432268002A21DB194A8C
:10280000A21851424A41802149018C4652420A4055
:10281000154962440A6015490A60154917008D6818
:10282000AF43FBD1C021221D890111432122266023
:10283000A0600A602268002AFCDAE36008230B60CB
:10284000F8BD3F2221680A40B242D8D1A2681205E1
:10285000120D8242D3D1EE21E268C9020A409A42A7
:10286000CDD1EDE70040FDBF00E0004000F00040AA
:1028700000C000408023024A9B000343D36270479C
:102880000080054010B5140080221B4BD2051A6051
:1028900000281AD00123194A1843194BDA61194A42
:1028A00042401A62596298628022134BD2051A6024
:1028B0001549164A1160E022D2041A60002C07D193
:1028C0008022134B12061A6010BD0D4BD861EBE746
:1028D00080236201121B9200121912015B049A42BA
:1028E00000D30C4A0C4B1A60054B5A608022084BEF
:1028F000D2051A60E8E7C04600B00540D3C007B073
:10290000008005402D3FF84FFCFF010008200140EA
:1029100000A00540FFFFFF0044230020AA23064A31
:102920001B0113602F230549D360054B19605368C1
:10293000002BFCDA7047C0460040024000B0FA00AD
:102940000060024010B501F0F3FB00F02BFB00F03B
:10295000DFFC00F08BFD05F0F7FB01F079FC00F0E7
:102960005FF905F061FB10BD40BA80B27047C04608
:1029700000BA7047F8B54746CE4680B50701040057
:102980003818000110308146404D414E2B68884672
:10299000B144002B02D02A7AA24258D0EB68002B17
:1029A00002D02A7DA2424BD0AB69002B03D020225B
:1029B000AA5CA2423DD06B6A002B03D02C22AA5CF9
:1029C000A2422FD03B191B01F318DB7B002C04D053
:1029D000B27A022A41D0012C06D08D225200B25C7C
:1029E000022A43D0022C05D02A4AB25C022A43D0E4
:1029F000032C03D0284AB25C022A42D0032B0DD804
:102A0000264D9B00585905F089FE00223C192401EF
:102A10003619F37B9B005A510423F3730CBC904688
:102A20009946F8BD41464846AA6A984700236B621A
:102A3000C8E741464846EA6998470023AB61BAE7D0
:102A4000414648462A6998470023EB60ACE7484670
:102A50006A68984700232B60A0E7F27B9A42BAD1BC
:102A600004233F193F01F619F373D7E72022FF3201
:102A7000B25C9A42B6D1F3E7094AB25C9A42B7D146
:102A8000EEE7084AB25C9A42B8D1E9E7A81A0020FA
:102A9000E01A00202A0200003A030000981A0020E1
:102AA0002F0200003F030000F0B5DE464E465746B9
:102AB00045468346E0B5030187B0534A01935B4422
:102AC0001B01D618F27A012A00D99AE04F499200E8
:102AD0008C58002C00D183E010331D004A4B9C46DB
:102AE0006544280013F0DEFCA022123081B292006F
:102AF000362000F0CBFE8146002800D17EE003ACFA
:102B00000C220021200011F035FA3089FFF72CFF4C
:102B100001232080A3700C22FF3321004846A380AC
:102B200001F076F93A4B0C269A464F46013D6B1C54
:102B300098466B78002445462E2B06D15BE06B78D7
:102B400001340135E4B22E2B01D0002BF7D14246DF
:102B5000AA1A92B223009146F318534545DC22008D
:102B60003100380001F008FA731C41469BB2341959
:102B70004A46380001F088F9A1B22B784E1CB6B253
:102B8000002BD4D10C0000223100380001F0F4F900
:102B9000204B02340422029302A9A3B2380001F0B0
:102BA00073F9194A019B944618495B441B0163441D
:102BB0008C46DA7ADB7B18499B00920058586244B5
:102BC0003523390005F034FD0400380000F0C0FF63
:102BD000200007B03CBC90469946A246AB46F0BDEB
:102BE0000021FFF7C7FEB472F2E70624380000F0B8
:102BF000AFFF6442ECE700239946ADE7012464424D
:102C0000E6E706480FF046FAE01A0020D81A00203E
:102C1000FEFF000000010001981A00209C670110CF
:102C20007047C04682B0012801D902B070478000C9
:102C3000002903D00A68044BC250F6E7034A024B4E
:102C400012680192C250F0E7D81A00204C8001109F
:102C5000F0B546464F46D646464BC0B5464E8D2744
:102C60003400002598467F00A37A022B35D02CD85B
:102C7000002B1FD0414B9946414B9A46FDF7A0FFD0
:102C8000B37A80B2022B40D0F35D022B43D04B4687
:102C9000F35C022B48D05346F35C022B4DD0022349
:102CA0000122A37200232081E37228002273637340
:102CB000FFF7FAFE01351134EDB2FF34042DD3D104
:102CC0001CBC90469946A246F0BD032B4ED123680A
:102CD000002B13D10023A372ECE7237B013BDBB273
:102CE0002373002BE6D1637B0133DBB26373042BC8
:102CF00029D023732800FFF7D7FEDBE7013B2360D1
:102D0000002BD7D10023A372D4E733898342B5D0F7
:102D1000F35D022BBBD11733FF33F35A8342ADD09F
:102D20004B46F35C022BB6D18A239B00F35A8342B5
:102D3000A4D05346F35C022BB1D1CE239B00F35AAF
:102D40008342ACD19AE7E37A002B08D1424652681D
:102D5000002A04D001226373E2722273CAE70021C1
:102D60002800FFF707FE0023A372A3E705480FF032
:102D700091F9C046D81A0020E01A00202A0200006B
:102D80003A030000D0670110F0B583B06B469C1D7C
:102D90000023238001331E000640184205D000297D
:102DA00003DD03780139637001300322130003400F
:102DB000104205D00023012938DD03880239023092
:102DC00007294BDD083907220F0097430200050051
:102DD0000832BF182A689A189A429B415B42D2185F
:102DE0006B680835D3189342924152429B18AF4208
:102DF000F0D1CA08551CD200ED00891A1A044019F6
:102E0000120C1B0C9B18012910DD02889B188A1ECE
:102E1000012A05DD45885B19052901DD81885B18DC
:102E200051084D1C6D0049004019511A012901D16A
:102E3000027822702288D318180C1B041B0CC318AC
:102E4000180C1B041B0CC018002E04D00306000431
:102E50001B0C000E184380B203B0F0BD1A00D0E77F
:102E6000F0B54F464646D646C0B51C68089B1600CE
:102E70001A68050013041B0C120C9B182204120C78
:102E8000240C9B18E3181C0C1B041B0CE3181C0CD3
:102E90001B041B0C0F00E418002826D000239846C2
:102EA00001339946FE339A4669896868FFF76CFFDB
:102EB0004A460019040C6B890004000C24181A42BD
:102EC00008D043465340524698462306240A1B0C1A
:102ED00014401C432D68002DE6D14346002B04D03E
:102EE000230624041B0C240E1C43B8B2FFF73CFD40
:102EF00005003000FFF738FD2D182C19200C240494
:102F0000240C0419200C2404240C0019C04380B2A2
:102F10001CBC90469946A246F0BDC04610B582B092
:102F2000049C0094FFF79CFF02B010BD10B5FFF7A2
:102F30002BFFC04380B210BDF0B5C646040000B5FB
:102F400000282AD0FF230026002701259846618902
:102F50006068FFF719FFC019070C63890004000CB3
:102F60003F181D4207D042463B06380A1B0C104052
:102F700003431F006E402468002CE8D1002E09D0C6
:102F80003B0638041B0C000E1843C04380B204BC3F
:102F90009046F0BDF84380B2F9E70148F7E7C04634
:102FA000FFFF000003220A4B002103339343094A29
:102FB00009481360FA221201197199180160012061
:102FC0001A60087105499950054A13607047C04658
:102FD000482400208C23002090230020A00FA00F65
:102FE00040230020F0B5D6464F464646C0B50028DF
:102FF0005FD0830700D068E00300384A083B1268BE
:103000009A425FD836490C30096881425AD3187900
:10301000002860D0FA201D88000185420CD85C8809
:10302000A246844208D8981A80B280461619A04257
:1030300005D03088404502D02A480FF02BF85019AF
:10304000814202D044884445F6D100241C71264CAC
:10305000A44624689C4202D9644623601C0099421D
:1030600036D9834213D00779002F10D181420ED078
:10307000A04223D005881D800188FA2000018142EA
:1030800005D040465118488059888A465618B342A0
:103090000FD0317900290CD1A34201D161460E60D5
:1030A000FA2135801B8809018B4202D0D218534681
:1030B00053801CBC90469946A246F0BD61461C0058
:1030C0000B60D7E709480EF0E5FF09480EF0E2FF74
:1030D00008480EF0DFFF08480EF0DCFF8C230020CC
:1030E000902300205868011040230020146801102C
:1030F000F06701108C68011030680110F0B5C64609
:10310000364BCA1C00B513400B2B3FD9FA221201D3
:1031100093423ED899423CD8314A1468844253D8ED
:10312000304A126882424FD90500083D291B8AB2F5
:1031300090462E8841463200083A521A92B29A427C
:1031400045D320D0A7193979002924D1FA221201B8
:1031500096423FD03A88244E9446424608329B1805
:1031600032689BB2BA422CD0E21800266146167132
:10317000118041465180FA212B80128809018A4230
:1031800001D0A418638004BC9046F0BD0C23994282
:10319000C2D90020F7E71F0014379742F3D8424600
:1031A00008329B18FA229BB21201964212D00E4F9F
:1031B000E2183968914200D93A60002716801771E9
:1031C000D7E7E2183260D0E708480EF063FF0848FE
:1031D0000EF060FF07480EF05DFFC046FCFF0000E8
:1031E0008C2300209023002040230020A868011099
:1031F000C0680110E0680110F0B5D6464F4646465B
:10320000C0B500282FD03B4CC31C1C400B2C30D920
:10321000FA231B019C4226D8A04224D8364BFA221E
:103220009C461B6812019A46344B121B1E6853467B
:103230009B1B98B21B0490461B0C9A4213D908277B
:103240007F4208E01588FB1A5B19A34213D22B00BA
:103250002800434507D2F21811790029F2D01088CE
:1032600003004345F7D300201CBC90469946A24674
:10327000F0BD0C24D0E71427B846A04443451BD228
:103280000123083413711E4B1868130092450ED0A9
:103290001419A0422BD3100008309307E4D019482A
:1032A0000EF0F8FE1B88F3181979002919D09842FE
:1032B000F8D163461860EBE7FA27083403193F0199
:1032C0009BB2B946BB420FD0F718397101213D803E
:1032D00078801380117139884945D4D071184B809A
:1032E000D1E761460B60D3E707480EF0D3FE0748ED
:1032F0000EF0D0FEFCFF0000402300208C230020B5
:103300009023002024690110E0680110F468011086
:1033100024230022F0B54746CE4690469946033214
:103320000425944680B5124F124B134CB9444146C4
:103330003A682160614603338B43002D0BD0168819
:103340000021002200E003000132196098191900E1
:103350002360AA42F7DB0437B94504D03A68946881
:1033600053685588E3E70CBC90469946F0BDC046CB
:10337000186A0110FC3300205023002010B50828E3
:1033800010D80B4B8000C458FDF788F8A3681C6860
:10339000002C03D022681A60A30705D1FDF780F83E
:1033A000200010BD0024FBE702480EF073FEC0466B
:1033B000186A01106869011070B50C0008280ED851
:1033C00000290CD0084B8000C5588B0708D1FDF7A9
:1033D00065F8AB681A6822601C60FDF761F870BD83
:1033E00002480EF057FEC046186A01108C690110A1
:1033F0000C2040427047C04670B505000C00160016
:1034000082B000292CD043680A6800209A4201D17A
:1034100002B070BD3360300001A9019201F08AFE54
:10342000300001A905F0A6F901A9300000F060FE06
:10343000392322686A60E95C343B0B40052B06D0D7
:10344000EB69002B01D0280098470120E0E7002A13
:10345000F6D00B07F4D52800291D08F033FCEFE760
:1034600001480EF017FEC0463C6A01107047C04686
:10347000F0B5C64600B504000E001700984682B0AD
:1034800000286AD0099B002B67D0002900D174E086
:10349000002F00D16FE04346002B69D03F4B002541
:1034A00063610022392320006560A560E560258600
:1034B0000021E2542830042210F05CFD089BE561F5
:1034C00063623C232562364D2A78E2540A9B2361CD
:1034D0003368002B3AD1310001AA2000FFF78CFF9E
:1034E0000122A168E0683B68994200D0A36043468E
:1034F0001B68984200D0E360002A33D02000099B6B
:103500009847002829D1274B3C2698461F683C2322
:10351000E05C00239C46FF2802D163460020A355AF
:10352000002F2CD0BC4236D03B00FF2207E01B68A6
:10353000002B24D09C422ED0013A002A0AD0995D5B
:103540008142F4D10130C0B2A055E4E7002000214F
:103550000022C8E714480EF09DFD002002B004BC14
:103560009046F0BD3100200001AAFFF745FFC5E7F6
:103570000E4B984692E70D4F8DE70C4E88E7FE28DC
:1035800007D00130C0B243462870276020001C607D
:10359000E4E70020F7E706480EF07CFDF133001069
:1035A00028240020C4CC0020606A01104C80011047
:1035B0004C6A0110F0B504000D0016001F0083B026
:1035C00000294ED0002E4AD0002F46D02B68002272
:1035D000002B0CD03368A1688B4200D0A3603B68FD
:1035E000E1688B4230D1002A31D003B0F0BD616870
:1035F00001220029EED06846009101A9019301F053
:1036000099FD684601A905F0B5F801A9684600F0E2
:103610006FFD39232A686260E15C343B0B40052B67
:1036200007D1002A05D00B0703D52000211D08F083
:1036300049FBE369002B01D0200098473368A1685B
:1036400001228B42CBD0C9E7E360002ACDD16A4684
:1036500029002000FFF7D0FEC7E7034FB6E7024E70
:10366000B2E7014DAEE7C0464C80011070B5041EB4
:1036700016D04368002B17D139220121A35C1942CF
:1036800024D11D4B1A68A2422ED01C4A1368A342B3
:1036900004D126E01A68A24203D01300002BF9D10E
:1036A00070BD22681A60FBE7051D0021280001F0AB
:1036B00041FD0021280005F05DF80021280000F000
:1036C00017FD39220121A35C1942DAD01800884382
:1036D000A0541B070BD4E369002BD2D020009847DD
:1036E000CFE723681360DBE700221A60CDE72000F4
:1036F00007F01EFFEFE7C046C8CC0020C4CC002076
:10370000014B18607047C046C8CC002070B5041E3D
:1037100015D03925435DDA0711D401221343DBB2FA
:103720004355C269002A01D09047635D05221A40C3
:10373000052A04D16268002A01D01B0700D470BD9D
:103740002000211D08F0BEFAF9E7C04670B5041E3E
:1037500003D03925435D5A0700D570BD04221343B9
:10376000435505F0CFFF0523625D1340052B05D0BF
:10377000236A002BF1D020009847EEE76368002B06
:10378000F6D01307F4D52000211D08F09BFAEFE7CF
:1037900010B500280AD039220421835C194205D0D3
:1037A0008B438354036A002B00D0984710BDC0465A
:1037B000021E0ED0084B1868002809D03C2102E0F8
:1037C0000068002804D0435C0133DBB29342F7D198
:1037D00070470020FCE7C046C4CC0020F8B50500C7
:1037E0000026002826D00F270BE0012B24D0002B29
:1037F0002AD12800FFF7F6FB0136F6B2002C19D0CB
:103800002500FCF74BFEAC7B002C1AD0013CE4B247
:10381000AC73FCF745FE002C0CD12B7B2C683B4095
:10382000022BE2D1290008200136FFF7C5FDF6B2D0
:10383000002CE5D13000F8BD29000720FFF7BCFDC2
:10384000DAE703480EF026FC02480EF023FCC046DF
:10385000906A0110A86A011010B5FCF71FFE002243
:10386000084B1A70FCF71CFE074B1868002803D1A0
:1038700007E0C068002804D0436F002BF9D001F0A6
:10388000A7FC10BDCCCC002064CD0020F0B5C12336
:103890004F464646D6468046C0B50D00170084B256
:1038A0005B009A423FD008D81400433BFF3B9C4347
:1038B000012C6AD03C480EF0EDFBA0239B009A42FD
:1038C000F8D1E31C0324CA1CA343A2439B189BB258
:1038D0001800103080B293421ED382421CD8FFF7EA
:1038E0008BFC061E19D0002303604346C71813370C
:1038F0002E4B2904A7430D4347608560C3600CE04D
:10390000FCF7CCFD01222A4B1A70FCF7C9FD002EF2
:1039100002D03000FFF762FF002630001CBC90464A
:103920009946A246F0BD00239846224B00269A46AF
:1039300000230327994607E043466D1AADB218608D
:10394000002DEAD0804600240820FFF717FD00284C
:10395000D6D05246E31CBB43D31A1A1C9BB2AB42CF
:1039600000D92A1C4B46041903601334124BBC4384
:1039700091B2446005814281C360002EDCD16D1A92
:10398000ADB20600002DDDD1C7E70720FFF7F6FC3A
:10399000061EC2D000230581036043604581077382
:1039A0004373C481B9E7C046BC6A011080000100BE
:1039B000CCCC0020EC0500008200010070B50400B2
:1039C0000D00002833D00189A9421BD9691A07E0EC
:1039D0002289ED1A521822812468ADB2002C20D021
:1039E0006389AB42F4D3227B120701D1AB420AD1E7
:1039F0002B0420682B43A360002801D0FFF7EEFEC4
:103A00000023236070BD63682000191B691889B208
:103A1000FFF774FB002807D08442E9D005480EF078
:103A200039FB05480EF036FB04480EF033FB044822
:103A30000EF030FB246B0110F06A0110086B0110CE
:103A4000D86A0110030070B5002820D080225202ED
:103A500091421AD2002916D002898CB2A21892B2D1
:103A6000944212D8057B01207F2D0DD95D68691A1B
:103A70001D001035A94207D35960598900206418E8
:103A80005C811A8100E0002070BD0120FCE7014844
:103A90000EF000FB406B011010B5002818D08023F9
:103AA0005B02994212D200290ED043898AB29A420F
:103AB0000CD844689B1AA4464381038961449A1A2E
:103AC00041600281002010BD0020FCE70120FAE7E0
:103AD00001480EF0DFFAC046406B011010B5002916
:103AE00015DB00282FD0002923D003898AB2D318F0
:103AF0009BB29A4225D8047B7F2C1CD84468611A5B
:103B000041604189038152184281002010BD002884
:103B100019D0494243898AB29A4212D844689B1A02
:103B2000A4464381038961449A1A416002810020BE
:103B3000ECE70020EAE74468611A04001034A1426F
:103B4000DED20120E2E701480EF0A4FA406B01103A
:103B500010B5002802D0FFF741FE10BD01480EF05D
:103B600099FAC046406B011003000020002B04D0DE
:103B70001B68013080B2002BFAD1704710B5041ECB
:103B800009D0FCF78BFCA37B0133A373FCF788FC03
:103B9000A37B002B00D010BD01480EF07BFAC0467D
:103BA0004C6B011010B5002814D0002912D0036806
:103BB000002B07D002890C891219028118001B689A
:103BC000002BF7D102894389934204D10A8901600D
:103BD0009B18038110BD01480EF05CFA606B011068
:103BE00010B50C0000281FD000291CD00368002B42
:103BF00007D0028921895218028118001B68002B06
:103C0000F7D102894389934211D1228904609B181C
:103C10000381FCF743FCA37B0133A373FCF740FC57
:103C2000A37B002B06D010BD0029FCD0F1E7034890
:103C30000EF030FA02480EF02DFAC046606B01100B
:103C40004C6B0110F0B54F46D64646468146C0B58E
:103C5000884692461F00002900D184E00B899342D8
:103C600000D280E0002800D17DE053460289FB1895
:103C70009A4200DA77E0002644890CE043465A89EC
:103C80001B899A423DD04B465C891B899C424DD092
:103C90005346002B57D043465B89E41B9B1B9C4239
:103CA00000D91C005546A24500D925004B465B684B
:103CB0002A00D81943465B687F19991910F060F9FA
:103CC000534676195D1BABB29A464B465C89BC42A3
:103CD0004CD343465B89B3424BD305D143461B6863
:103CE00000269846002B17D0BC42C7D14B461B6814
:103CF0009946002B1FD043465A891B8900279A42B8
:103D0000C1D143461B68002BBDD0062040421CBCDD
:103D100090469946A246F0BD5346002B23D1BC42A3
:103D200019D04B461B899C420DD100264B461B687F
:103D3000002BADD0E9E75346002B14D143461A8936
:103D40005B899A4201D00020E1E743461B68002BC3
:103D5000DBD10020DBE74B461B689946002BF2D0F5
:103D600000275C89DDE710204042D0E702480EF0D2
:103D700091F902480EF08EF9906B0110A86B0110BA
:103D800010B5002904D000230A89FFF75BFF10BD9E
:103D900010204042FBE7C046E0B54746CE46894684
:103DA0001900002380B506001700984600282AD085
:103DB0004B46002B27D0002A05D124E03668491B4A
:103DC00089B2002E1FD07589002901D0A942F5D2F1
:103DD0006D1AADB23A1CAF4200D92A1C736848462E
:103DE0009C4695B240442A00614410F0C9F843460D
:103DF0007F1BEB189BB2BFB298463668002F02D0EB
:103E00000021002EDFD140460CBC90469946E0BD13
:103E1000F8B5CE46474605008846914680B500284D
:103E200024D0002922D0038993421CD316000027F6
:103E3000002A02D112E0002D1BD06C89B44200D9B7
:103E4000340043466868D919220010F099F8361BEF
:103E50002D683F19002EEED1B9450DD100200CBCC4
:103E600090469946F8BD01204042F8E710204042B4
:103E7000F5E703480EF00EF902480EF00BF9C046C4
:103E8000C46B0110DC6B0110F0B5D6464F464646B8
:103E900004008A46C0B5002805D13AE024685B1BBF
:103EA0009BB2002C35D065899D42F7D921899E1897
:103EB000B1422EDBE91A8A4232DD8AB2904662684C
:103EC0005146D018751B424610F05AF8ABB29946CD
:103ED000002B1CD02668002E29D033894B4518D3DF
:103EE0004D46002701E0002E24D07489AC4200D951
:103EF0002C004346D91970682200514410F040F854
:103F00002D1B36683F19002DEDD1B94515D1002084
:103F100001E0012040421CBC90469946A246F0BDFB
:103F200060685146C01810F02BF80020F3E710200D
:103F30004042F0E702480EF0ADF802480EF0AAF851
:103F4000C46B0110DC6B01100B0070B515001189FA
:103F50001A00FFF79BFC041E06D0002329002A89C3
:103F6000FFF770FE002801D1200070BD01480EF05F
:103F700091F8C046F46B011005E043898B4205D8E7
:103F8000C91A006889B20028F7D1704743685A54AB
:103F9000FBE7C046F0B557464546DE464E468046EE
:103FA000E0B54F4F83B03968786909F00FF84346A0
:103FB0005A684C4B557A1C689A46002C00D187E011
:103FC000002843D1012300269B46844604E0E36891
:103FD0002600002B32D01C00237CAB42F7D1217A83
:103FE000002906D03C237868C35C0133DBB29942D8
:103FF000EDD12368002B02D079698B42E7D1594675
:10400000637C194203D0636839698B42DFD16369ED
:104010009946002BDBD0019221004246324BA06929
:10402000C847002849D143465A68019B934253D15F
:1040300002239C46E3682600002BCCD1604603B0E7
:104040003CBC90469946A246AB46F0BD00200123F9
:1040500000269B46844604E0E3682600002BEDD052
:104060001C00237CAB42F7D1217A002906D03C23E7
:104070007868C35C0133DBB29942EDD12368002B31
:10408000EAD15946637C194203D0636839698B428F
:10409000E2D163699946002BDED0019221004246AD
:1040A000114BA069C847002807D143465A68019BB5
:1040B0009A4211D102239C46CEE7002E0AD0E36833
:1040C0000120F36053461B68E36053461C60B6E76B
:1040D0000020B4E70120B2E704480DF0DBFFC04642
:1040E000302400209C23002040240020086C011074
:1040F00010B5002811D00268002A0ED000290CD07B
:104100000B68002B09D0094B1B68002B05D01C68DD
:10411000944203D0DB68002BF9D110BD0A681A6005
:10412000DB68002BF9D00268F1E7C0469C23002031
:104130007047C04610B5041E23D0037D042B05D064
:10414000072B0FD00020032B00D010BD200003F060
:1041500033F800280AD105232375200003F05AFB09
:104160000020F2E703F028F8002807D0431CECD128
:104170000822638B002013436383E6E7092323753A
:10418000EBE701480DF086FF546C011070B5060096
:10419000806F002803D0FFF7DBFC0023B367746F48
:1041A000002C18D06068256800280CD0FFF7D0FCE0
:1041B00021000420FFF700F9002D0AD02C006068D0
:1041C00025680028F2D121000420FFF7F5F8002D22
:1041D000F4D1002373670123F46E5B423386002C15
:1041E00016D06068256800280CD0FFF7B1FC2100CC
:1041F0000420FFF7E1F8002D0AD02C006068256844
:104200000028F2D121000420FFF7D6F8002DF4D1C8
:10421000346F002C16D06068256800280CD0FFF79A
:1042200097FC21000420FFF7C7F8002D0AD02C00CE
:10423000606825680028F2D121000420FFF7BCF84F
:10424000002DF4D100236822F3663367B35270BDAA
:1042500010B5FCF7B5FC044B80049C46800C034B66
:104260006044188010BDC04600C0FFFFB811002098
:1042700010B5037D0100012B03D00220FFF79CF84D
:1042800010BD01480DF006FF606C0110F8B5031E6B
:104290001FD0078DC16A456A5C8E114E781A40198D
:1042A000221CB4420BD892B2821A0CD5491B0CD4F2
:1042B0008022520291420FD200205985F8BD321C53
:1042C00092B2821AF2D45F85F8E7002200205A8564
:1042D000F4E704480DF0DEFE03480DF0DBFEC046B7
:1042E000D0160000746C0110986C0110F8B500280D
:1042F0001DD0037D012B34D0028D1D4B511889B286
:1043000099421BD91900466A458E1A4FC46A018525
:10431000F3182A1CBD420BD892B212199A1A11D561
:10432000A41B1BD48022520294421DD24485F8BDA6
:104330003A1C92B212199A1AF2D403E08A42E1D8D6
:104340000B00E0E70C4A41851B1B9342EFD9022288
:10435000438B1343438303F05DFAE8E7002343856F
:10436000E5E706480DF096FE05480DF093FEC046C1
:10437000A02D0000D0160000670B0000B46C0110E7
:10438000986C0110F0B5DE46454657464E46E0B5FE
:10439000BF4DC04A2B6887B001332B60BD4B1B78E3
:1043A00001331370BC4B9B465B461C68002C00D14C
:1043B000CCE000230593237D002B00D112E2012BDA
:1043C00000D115E20A2B00D10FE2B24AA17F127888
:1043D000914200D159E1A2774222A25C022B00D186
:1043E000FEE00B2A00D9F8E0A122A65C002E00D145
:1043F0005AE1226F002A00D012E2E26E002A00D1B8
:104400000BE2A222A25C0B2A00D9E6E0A020A34A7C
:104410009619013E3178225C8A4200D28DE16023F8
:10442000E15A002900D0BAE0200003F0FBFC00288C
:1044300000D0C0E0A0230022E254A132A35C062BEE
:1044400000D9B8E0012700260133A354237D062BB1
:1044500000D1B6E008210800627A1040804611427F
:1044600027D0042B00D05EE12B68226AFA219B1A28
:1044700099469423E35849009A469823E35898466E
:104480009C23E0584346584350440FF091F981452E
:1044900000D93EE1A3274346E05DFA2143431800DB
:1044A000490050440FF084F900239846814500D913
:1044B0004AE1676F002F0AD02B68226A9A1A4023BC
:1044C000E15E4B005B185B009A4200D305E1237D5F
:1044D000032B00D18BE0092B00D0AFE02B68226AC0
:1044E0009B1AF02B00D888E09023E6582000FFF7B5
:1044F0004DFE059B002B00D1AEE05B461B68A3423E
:1045000000D17EE1059BE268DA604346002B00D0D3
:10451000AEE023699946E3689846237D012B00D1DC
:104520006CE121000220FEF747FF00235C4C237062
:10453000002E07D00D2148464942B0472378002B72
:1045400000D031E74446002C00D034E7554F00241A
:104550003968002904D11BE00C00C968002917D074
:104560000B7D0A2B00D046E12B680A6A9B1AF02BC0
:10457000F2D9002C00D1DAE03B688B4200D143E154
:10458000CB68E360CE680220FEF716FF311EE7D14C
:1045900007B03CBC90469946A246AB46F0BD200011
:1045A00002F020FD002800D044E7200003F032F99B
:1045B000002800D03EE7237D01270026062B00D0EF
:1045C00048E7638BDB0605D52B68226A9B1A282BEC
:1045D00000D93E00002398466BE70227012636E704
:1045E000052A00D800E700230126984661E72B68DA
:1045F000226A9B1A282B00D976E7002E00D073E799
:10460000237F627F0133DBB2E66823779A4212D8B8
:104610000023234A237713708C33E358002B00D1F7
:104620007BE02100206998471D4B1B78002B00D0B0
:10463000BAE6002871D00594340084E7002EDFD05C
:104640009022A658012B00D853E70A2B00D04DE743
:10465000059B002B00D050E75B461B68A34200D0AF
:10466000D8E05B46E2681A604346002B00D150E771
:10467000238B626A216D0293E38A20000193231D3C
:104680000093230002F090FF43E70594E4685AE7A3
:1046900068CD00202D24002064CD0020387001104A
:1046A00060CD002074CD00203022A15E5E48228EB5
:1046B000824202D8013211B221864022A25E012735
:1046C0008A4200DDC3E6200002F0A0FE002848D0A8
:1046D000236F002B42D0237DB9E67868A1463C6861
:1046E00000280CD0FFF734FA39000420FEF764FEEE
:1046F000002C0AD0270078683C680028F2D13900E5
:104700000420FEF759FE002CF4D14C4600236367C9
:10471000DDE601233E009846CBE6200003F07AF860
:10472000059434000FE7072B00D19DE652E73B6864
:104730008B426CD1CE683E6025E70132D2B2225462
:104740008A4200D238E76AE6200003F0FBFA00282C
:1047500000D0AEE6E35D0133E355AAE6E36E002B3D
:10476000B9D0237D022B13D03C22A35E3E21625E92
:10477000DB109B184222A15C0A1C0C2929D82B496A
:10478000D2B28A5C9340284A934220DC4022A35252
:104790000023482123866033E25A605A131C824268
:1047A00000D9031C4A209BB25B082352618E4A0049
:1047B00092B2934200D2225248230022E152223385
:1047C000E252200003F05EFA0127237D3FE6184BFA
:1047D000DCE70C221549D2B28A5C9340124A93421C
:1047E000D4DDF4E713480DF055FC13480DF052FCEE
:1047F00012480DF04FFC12480DF04CFC11480DF022
:1048000049FC11480DF046FC10480DF043FC1048DF
:104810000DF040FC0F480DF03DFC0F480DF03AFC48
:104820000E480DF037FCC046FE7F000018700110E6
:10483000FF7F0000DC6C0110346D0110086D011069
:10484000246E0110606C0110CC6D0110546E0110CB
:104850007C6E0110F86D0110946D0110606D0110F7
:1048600070B5041E16D06068256800280CD0FFF7CC
:104870006FF921000420FEF79FFD002D0AD02C00C7
:10488000606825680028F2D121000420FEF794FD1D
:10489000002DF4D170BDC04610B5041E08D040688C
:1048A000002801D0FFF754F921000420FEF784FD11
:1048B00010BDC04670B5051E0DD00420FEF75EFD8C
:1048C000041E06D0102229000FF05AFB6068FFF783
:1048D00055F9200070BD01480DF0DCFBA46E0110FD
:1048E00010B5002806D0037D012B03D90A2B01D077
:1048F000FFF74CFC10BDC04610B50C1E47D0002879
:1049000048D003688B4204D12FE0DA68A24224D059
:104910001300002BF9D10023E360237D002B0FD17E
:10492000638BDA0729D4E36E002B36D1236F002B7B
:1049300036D1636F002B36D100232375E38210BD7F
:104940000A2BF0D0012BF7D02000FFF71FFC237DAE
:104950000A2BE8D0012BEFD0E2E7E268DA6000230F
:10496000E360237D002BEBD1DAE7CB680360002303
:10497000E360237D002BE3D1D2E70222134363835C
:10498000200002F047FF237D012BD5D0CBE707485D
:104990000DF080FB06480DF07DFB06480DF07AFB1C
:1049A00005480DF077FB05480DF074FBC06E011053
:1049B000DC6E0110FC6E0110146F0110306F0110DD
:1049C000F0B54E464546DE465746E0B505000E00BA
:1049D00087B0002867D0037D012B00D1B3E00A2BFC
:1049E00000D1A1E0026D9246426A0592902282585F
:1049F000934602699146002B63D1C38A00269846EC
:104A0000002B67D0534A1368834257D1C3681360A1
:104A100000232C6F98460026EB60002C5DD1EC6ED5
:104A2000002C16D06068276800280CD0FFF790F89B
:104A300021000420FEF7C0FC002F0AD03C00606873
:104A400027680028F2D121000420FEF7B5FC002FD2
:104A5000F4D16C6F002C16D06068276800280CD049
:104A6000FFF776F821000420FEF7A6FC002F0AD0FD
:104A70003C00606827680028F2D121000420FEF77E
:104A80009BFC002FF4D1002E41D12B7D012B5DD05A
:104A900029000220FEF790FC5B46002B03D00D217D
:104AA00048464942D84707B03CBC90469946A24682
:104AB000AB46F0BDDA68AA4242D01300002BF9D110
:104AC000A6E7C38A010024489846FFF715FF012294
:104AD000224B1A702C6F002CA1D060682768002828
:104AE0000CD0FFF735F821000420FEF765FC002FFD
:104AF00095D03C00606827680028F2D1210004208E
:104B0000FEF75AFC002F00D189E73C00F2E72B8B1F
:104B100051460293434601932B1D009328002B001E
:104B2000059A02F041FDB0E701000D48FFF7E4FEF1
:104B30002B7D012B0AD029000220FEF73DFCB2E7B5
:104B4000EA68DA6064E707480DF0A4FA06480DF059
:104B5000A1FAC04670CD002064CD002060CD0020B9
:104B600074CD0020486F0110606C011010B5012158
:104B7000FFF726FF10BDC046F0B5C646050000B5DC
:104B80000220FEF7FBFB041E2AD0A42200212000F5
:104B90000FF0F0F96423604A6575E2525F4B4022E2
:104BA000A362FF23E372F93BA352E3875C4B5D4AA8
:104BB00023635D4B1B6823625C4B1B78A3775C4BC4
:104BC000A3648423E2505B4A1033E2505A4A043310
:104BD000E25009220433E250200004BC9046F0BDAC
:104BE0000827564E3468002C0AD02000438BE46816
:104BF0001F42F8D0BB434383FFF79CFA002CF4D14B
:104C00004F4B1868002812D0474B1C68036AE11A02
:104C1000C368002B08D01A6AA21A914201D8110069
:104C20001800DB68002BF6D10121FFF7C9FE022036
:104C3000FEF7A4FB041EA8D13368002B16D03A4A15
:104C40000021106802E0DB68002B09D01A7D092AD8
:104C5000F9D11A6A821A9142F5D811001C00F2E7C4
:104C6000002C03D000212000FFF7AAFE0220FEF74F
:104C700085FB041E00D088E73368002B16D02A4A33
:104C80000021106802E0DB68002B09D01A7D082A99
:104C9000F9D11A6A821A8A42F5D311001C00F2E790
:104CA000002C03D000212000FFF78AFE0220FEF72F
:104CB00065FB041E00D068E76BB2002B2ADB002DD9
:104CC00021D02A003368013AD2B2002B1BD01649FA
:104CD0000F680021884607E0186A3A1A90461C00BF
:104CE0000A00DB68002B08D0597D8A42F4D8F8D13D
:104CF000186A3E1A4645F4D3EFE7002C03D0012191
:104D00002000FFF75DFE0220FEF738FB041E00D1F5
:104D100062E73AE77F22D5E7A02D0000A02DA02D65
:104D2000FFFF1802D14E001068CD00202D24002076
:104D30000100A02D00DD6D00F824010064CD0020ED
:104D400074CD002030B5040085B0002800D19FE06C
:104D5000037D002903D0042B0DD0072B0BD0012B92
:104D600000D169E0022B4ED0002B3BD02000FFF792
:104D7000E1F905B030BDA26F002A54D0638BDB0689
:104D800000D488E0238B20000293E38A626A0193B7
:104D9000231D0093216D230002F006FC237D012BCF
:104DA00004D90A2B02D02000FFF7F0F93D4A13681E
:104DB000A34214D1E368136000230122E3603A4B5D
:104DC0001A703A4B1B68A34232D0237D012B24D1A9
:104DD00037480DF05FF9DA68A24250D01300002B7B
:104DE000F9D1E9E7E38A002B17D0324A1368A342CE
:104DF00004D14AE0DA68A24244D01300002BF9D172
:104E00000023E36009E021002648FFF775FD012239
:104E1000254B1A70237D012BDAD002202100FEF7EA
:104E2000CBFA0020A5E7244A218D9142A6D196E72E
:104E300001F08EFF00209CE7204A002110000C307A
:104E400053681B68002B05D0DD6FAC4212D0DB68C5
:104E5000002BF9D104329042F2D121001848FFF71B
:104E60004BFD237D012B19D003202100FEF7A4FA6E
:104E700000207EE7D967DB68002BE5D1EAE7E2682E
:104E8000DA6099E7E268DA60BAE7E3681360B7E7E7
:104E90000C480DF0FFF80C480DF0FCF80B480DF035
:104EA000F9F8C04664CD002060CD002078CD002008
:104EB000606C011070CD0020A02D00002870011042
:104EC0006CCD00207C6F01109C6F0110B86F011039
:104ED000F0B5C6460C00150000B500294ED0002ADA
:104EE0002AD00B7D012B4CD01389098D284ACB1871
:104EF0009BB293421CD913009046676A668E254A7E
:104F0000E06A2385B844311C964200D9111C424600
:104F100089B20918511A18D5C01B13D480235B021B
:104F2000984231D260852800FEF712FE002006E08C
:104F30009942E0D81A00DFE70020002B12D004BC11
:104F40009046F0BD00236385EDE76385124B121A8E
:104F50009A42E8D90222638B20001343638302F054
:104F600059FCE0E70B7D012B03D010224B8B134340
:104F70004B8301212000FFF7E5FEE0E710204042CF
:104F8000DDE706480DF086F805480DF083F8C046C9
:104F9000A02D0000D0160000670B0000B46C0110BB
:104FA000986C0110F8B5041E32D00023856F6F7B1A
:104FB00083678433C658002E0CD0010000232A00DA
:104FC0000069B04700280BD00D301ED00520A56722
:104FD0004042F8BD2989FFF789F92800FEF7B8FD9E
:104FE000BB0610D5238D0C4A934201D00133238593
:104FF0008423E558002D06D00023002221002069DB
:10500000A8470D3001D00020E3E70D204042E0E743
:1050100010204042DDE7C046A02D0000F0B54F460D
:105020004646D646C0B5204D204F2B7801332B7015
:105030001F4B9946012398464B461C68002C1BD0F9
:1050400008262B78A27F9A421BD04246A377638B17
:105050001A421ED11E4216D1E3689A46A36F002B56
:1050600007D0002320003B70FFF79CFF3B78002B0C
:10507000E2D15446002CE4D11CBC90469946A2468D
:10508000F0BDE468F6E7B34320006383FFF752F80E
:10509000E2E7022213436383200002F0BBFB0322FA
:1050A000638B93436383D5E72D24002060CD0020DC
:1050B00064CD002010B5FFF7B1FF054A1378013326
:1050C000DBB21370DB0700D410BDFFF75BF9FBE721
:1050D0002C24002010B5002807D0054B054A106885
:1050E0001A6894466044186010BD03480CF0D2FF63
:1050F000B411002068CD0020D46F011010B5002A33
:1051000012D000290AD00B8E002B07D0282B06D9ED
:10511000283B1A1C9BB2834203D890B210BD0020DA
:10512000FCE7021C90B2F9E701480CF0B3FFC0465F
:10513000F06F011070B504000D00002802D0036864
:10514000002B00D170BD1F4A1068002805D00268EE
:10515000934226D0C0680028F9D11B4B186800285C
:1051600006D0236802689A4224D0C0680028F9D18A
:10517000002DE7D02B68002BE4D0144B1A68002ACE
:10518000E0D023681168994205D0D268002AD9D0AE
:1051900011689942F9D12B681360D268002AF0D1C6
:1051A000D0E7C6680121FFF70BFC002ED5D03000F8
:1051B0002368CCE7C6680121FFF702FC002ED7D098
:1051C0003000CEE764CD002070CD00206CCD0020F3
:1051D00070B5446F0600002C18D060682568002860
:1051E0000CD0FEF7B5FC21000420FEF7E5F8002DF9
:1051F0000AD02C00606825680028F2D12100042024
:10520000FEF7DAF8002DF4D10023736770BDC046B5
:10521000F8B5DE4657464E464546E0B5002800D173
:10522000ABE0574B1D88002D46D0564B99460023C6
:105230004A461380544B00221E68544B1F881B782B
:1052400098464146C943524B8A461B6851499C4681
:105250008B460023002E1FD0140014346444954262
:1052600000D87EE0531C9BB297422BD85146C918F8
:10527000C9B2715C012928D002292AD0002919D08D
:105280009F4252D963441B7D012B00D871E0D21894
:10529000012392B2002EDFD11100143161449542F6
:1052A0005FD90C78531C9BB2012C50D0022C4BD0F0
:1052B000002CE7D14A4613803CBC90469946A24652
:1052C000AB46F8BD21780129D6D11A00013401235B
:1052D000C5E7911C89B29F4222D963441B7D042BF0
:1052E00044D14B1CAB4241DAD31C9BB2002E32D0CE
:1052F0008F421FD84446091BC9B2715C04320902AF
:1053000092B29F421DD844461B1BDBB2F35C0B4399
:10531000591E89B2594500D91F4B43860123B9E76D
:1053200044461B1BDBB2F35CD9E741465B1ADBB298
:10533000F35CA9E76144097D0432090292B29F42FD
:10534000E1D963441B7DE2E7911C89B2C5E71A00ED
:1053500001310123A3E76144097D0432090292B2BD
:10536000EFE7002BA8D04B461A80A5E74B461980E3
:10537000A2E74B4602321A809EE708480CF08AFEEC
:105380001624002012240020E823002014240020EA
:10539000E4230020B3050000B405000040700110B4
:1053A000F8B5CE46474605000C0080B500285CD015
:1053B000C368587B1A7B00021043FDF7D5FAC30778
:1053C0004ED401239946FE339846294E33682989E5
:1053D0009C46E368614458791A79000210439A792F
:1053E00012041043DA791206024320898018081A41
:1053F0002CD4587B1A7B00021043FDF7B5FA4B46BC
:10540000034207D127682000FFF746FA002F17D084
:105410003C00DBE7EB68587B1F7B00020743012061
:10542000FDF7A2FA41463843EA6883B2276808408C
:105430001B0A107353732000FFF72EFA002FE7D1D9
:1054400000242C600CBC90469946F8BD511AF8D542
:105450006346D21A91B268682981FEF7AFFAF0E785
:105460002000FFF7FDF90024EBE702480CF012FEE4
:10547000B02300205C700110F0B55746DE464E4662
:105480004546E0B583B007000C1E019243D02C4B7B
:105490009B4603239A462B4B98465B46E2681D6861
:1054A000537910791B020343907900040343D079A8
:1054B00000061843FDF75CFA238906009946E36865
:1054C000AD1B587B1A7B00021043FDF74DFA4B468B
:1054D000ED1A53461840461EB0412D1A27D4606875
:1054E0002568FEF741FB3B88984225D842461B1AA7
:1054F0003B801288238920009B1842461380FFF7C7
:10550000CBF93B88002B0ED0002D01D02C00C4E736
:10551000019B002B0DD0002003B03CBC9046994667
:10552000A246AB46F0BD002DF5D02C00B5E720001B
:10553000F2E705480CF0AEFD04480CF0ABFDC046A8
:105540009017002010240020AC700110847001100E
:10555000F0B5DE4657464E464546E0B5040083B0FA
:10556000002801D100F0D2FC017D032901D800F010
:10557000D0FCAA4B1B78DB0654D4A94EA94D338826
:105580002A689C466346002B00D1DCE0217D062979
:1055900000D9D8E0636A991A012900D552E1D843AD
:1055A00067468018F84200D54CE19F4F7868002884
:1055B00001D100F0DDFC9D4B994201D900F0D5FCF2
:1055C000028989B28A4201D200F0CCFC3B89521A8E
:1055D0005B1A3B8193B2984643898B420BD20022DF
:1055E00094464246C91A634602814381006889B2E3
:1055F00043898B42F6D3FEF74FFA636AFA68190AB9
:1056000051711902090E9171190E2B601371D1712C
:10561000228DD218DB43DA4200D45CE2200002F093
:10562000CFF898E06023C35A7E4D9946836D2A686F
:105630009A46436D981A00D599E0934200D14CE107
:105640007B4B18680093824500D1D2E1666C4B46D3
:10565000B046D346361A00D4A2E04346DB43C342E9
:1056600000D542E1236D1B1A00D53EE104231E0044
:10567000628B1640134200D0E5E14633E35A9C4664
:105680004823E15A3C27E35FE78FDB10B946402708
:105690004B44E35343460237C31AE6539BB260645C
:1056A0008C4500D8E5E18020000102405042424193
:1056B000608E01324243101C92B29A4200D9181CEB
:1056C000081880B2884200D2DDE14822A0522600AC
:1056D0006636E26E216F3000FFF7CEFEE16E02000B
:1056E00020673000FFF7C8FE216FE0664B424B4158
:1056F0005B42238600232377002800D1C8E164227F
:105700004C4EA35A36889B19A352638B1A0500D4BA
:10571000EEE0002900D116E3CA68537910791B0224
:105720000343907900040343D07900061843FDF742
:105730001FF9E36CC01A00D5DAE0638B3E4A384E9D
:1057400013406383D5E0636AD11A0BD4D243218D11
:10575000CB18D34206D403B03CBC90469946A2462F
:10576000AB46F0BD0222638B13436383F3E7304BF8
:1057700018680093314B1E68B37B9C46F37B6646EA
:105780001B0233436026A3530236A75B9F4243D3D9
:10579000666C8346B0466265A065361A00D55CE744
:1057A0001F4E3788BC46002F31D149465B445144D7
:1057B0008B4200D12EE1636B002BC4D0A16B081A81
:1057C00000D4DFE698B21E493C23E75E0988FB104F
:1057D0009BB28846C91A091A89B2CF199A463FB2B4
:1057E0000BB2A787002B04DA51464346CB1AC318E5
:1057F00099B23E20235EFF1098101B1ACB1840214F
:105800009BB2E387DB19635200236363BAE6636BE1
:10581000002B00D1BBE6D1E7A353B9E72424002035
:1058200018240020B02300202C230020FEFF0000BD
:105830009017002010240020FFF7FFFFE423002032
:1058400068CD0020D11A00D5DFE0D1438946484613
:10585000218DC918C14200D5E0E6934200D139E15B
:105860000023676F9846531E002F00D170E2B446A4
:1058700016004246A84601940093F86841790379DE
:105880000902194383791B041943C3791B060B438F
:10589000B34200D1FFE0002A33D0D1680C79A3468F
:1058A0004C792402A2465C4655462C43A3468C798B
:1058B000C9792404A2465C46554609062C43214377
:1058C000009C611A03D44946CB4200D449E23968AE
:1058D0003A00002923D00F00CFE7BF4B1868009390
:1058E00053461B1A00D4AEE644E7200001F068FFDF
:1058F000BA4E636B002B00D075E033882A689C4653
:1059000040E6F21AE3D5B648019CFEF7D3FF002823
:1059100000D183E660673900FFF742FD7EE6320082
:1059200045466646019C9B1A00D477E6037B407B84
:1059300000021843FDF718F8C30700D56EE6A84823
:10594000FEF7B8FF3860002800D167E6F8682A68DB
:10595000437901791B020B43817909040B43C17917
:10596000090619433B895B18D31A00D5C6E2636A5E
:105970003188591A238DC918891A00D44EE63B681C
:10598000DB68587B1A7B00021043FCF7EDFFC3076E
:1059900000D5C6E23A68218D2B685068C91A636A3F
:1059A0009C46614489B21181FEF708F83B681F8963
:1059B000DB68587B1A7B00021043FCF7D5FF03001D
:1059C00003200340581E8341616AFB188C462A68F5
:1059D0009BB233809B18228D6244934200D11DE616
:1059E00080480CF057FB009A1068328894462A6869
:1059F000E4E67D4B1E68B37B9C46F37B66461B0248
:105A00003343994500D321E6BCE60222638B13435E
:105A1000638303E63021635E002B00DACBE680452A
:105A200000D0C8E64321635CFF2B00D1F1E10133D4
:105A3000DBB26354032B00D9EBE100D0BBE62000BE
:105A400001F080FD55E79A434A2362830022E15A20
:105A5000023BE1522233E2523C26A35FE68FDB1089
:105A60009B194026A35343460236C31AA2539BB246
:105A700060646A20225AD3189BB29A421ED88B4285
:105A80001DD2235223E6012248235242E2521EE64F
:105A90006833E05233E6524890463B890289019CC4
:105AA0009A4200D8BAE5FEF705FF002800D1B5E517
:105AB0004346002B00D12DE718602CE74B4B6A22A0
:105AC0005B1AA352638ECB189BB28B42DBD3223A74
:105AD000A352FCE5424F3B899846FB68587B1A7BF2
